S00E00004B65795061642E73726563D8
S11300000C942A000C9447000C9447000C9447006D
S11300100C9447000C9447000C9447000C94470040
S11300200C9447000C9447000C9447000C94470030
S11300300C9447000C9447000C9447000C94470020
S11300400C9447000C9447000C9447000C94470010
S11300500C94470011241FBECFE5D8E0DEBFCDBF0E
S113006010E0A0E6B0E0ECE1F7E002C005900D92EC
S1130070A037B107D9F710E0A0E7B0E001C01D92A6
S1130080A137B107E1F70E9454020C948C030C943D
S11300900000442309F459C0413009F0ABC0823454
S11300A0F1F0833420F4813409F0A4C006C0833411
S11300B041F1843409F09EC036C0683019F48AB323
S11300C08FEF8ABB2AB381E090E0AC0102C0440FF9
S11300D0551F6A95E2F7BA01622B6ABB089568302E
S11300E019F487B38FEF87BB27B381E090E0AC01AD
S11300F002C0440F551F6A95E2F7BA01622B67BB31
S11301000895683019F484B38FEF84BB24B381E07D
S113011090E0AC0102C0440F551F6A95E2F7BA01A2
S1130120622B64BB0895683019F481B38FEF81BBEF
S113013021B381E090E0AC0102C0440F551F6A95E1
S1130140E2F7BA01622B61BB08958234F1F0833483
S113015020F4813409F04EC006C0833441F1843464
S113016009F048C036C0683011F48AB31ABA2AB309
S113017081E090E0AC0102C0440F551F6A95E2F79C
S1130180BA01609562236ABB0895683011F487B39D
S113019017BA27B381E090E0AC0102C0440F551FA9
S11301A06A95E2F7BA016095622367BB08956830E7
S11301B011F484B314BA24B381E090E0AC0102C01A
S11301C0440F551F6A95E2F7BA016095622364BB38
S11301D00895683011F481B311BA21B381E090E03D
S11301E0AC0102C0440F551F6A95E2F7BA0160954D
S11301F0622361BB0895442309F459C0413009F0D6
S1130200ABC08234F1F0833420F4813409F0A4C00B
S113021006C0833441F1843409F09EC036C068308E
S113022019F48BB38FEF8BBB2BB381E090E0AC015F
S113023002C0440F551F6A95E2F7BA01622B6BBBEB
S11302400895683019F488B38FEF88BB28B381E030
S113025090E0AC0102C0440F551F6A95E2F7BA0161
S1130260622B68BB0895683019F485B38FEF85BBA2
S113027025B381E090E0AC0102C0440F551F6A959C
S1130280E2F7BA01622B65BB0895683019F482B3B2
S11302908FEF82BB22B381E090E0AC0102C0440F37
S11302A0551F6A95E2F7BA01622B62BB0895823446
S11302B0F1F0833420F4813409F04EC006C0833455
S11302C041F1843409F048C036C0683011F48BB36E
S11302D01BBA2BB381E090E0AC0102C0440F551F60
S11302E06A95E2F7BA01609562236BBB08956830A2
S11302F011F488B318BA28B381E090E0AC0102C0CD
S1130300440F551F6A95E2F7BA016095622368BBF2
S11303100895683011F485B315BA25B381E090E0EF
S1130320AC0102C0440F551F6A95E2F7BA0160950B
S1130330622365BB0895683011F482B312BA22B304
S113034081E090E0AC0102C0440F551F6A95E2F7CA
S1130350BA016095622362BB08958234F1F083345C
S113036020F4813409F04FC006C0833441F1843451
S113037009F049C036C029B381E090E0062E02C0DE
S1130380880F991F0A94E2F730E08223932302C076
S1130390959587956A95E2F7089526B381E090E0F4
S11303A0062E02C0880F991F0A94E2F730E08223D8
S11303B0932302C0959587956A95E2F7089523B330
S11303C081E090E0062E02C0880F991F0A94E2F79C
S11303D030E08223932302C0959587956A95E2F7CE
S11303E0089520B381E090E0062E02C0880F991F83
S11303F00A94E2F730E08223932302C0959587950F
S11304006A95E2F7089508958FE081BB80B78B7FEA
S113041080BF82B3806F82BB0895EF92FF920F93E7
S11304201F93CF93DF9300E010E0EE24FF24689441
S1130430E2F884E460E041E00E94FB0084E461E0CF
S113044041E00E94FB0084E462E041E00E94FB0082
S113045084E463E041E00E94FB0084E4602F40E018
S11304600E94FB00E70184E46C2F0E94AD01882305
S113047051F4000F111F000F111FC00FD11FC45AD8
S1130480DF4F88810AC02196C830D10561F70F5F1C
S11304901F4F0430110569F68FEFDF91CF911F9143
S11304A00F91FF90EF9008950E9404020E944A0366
S11304B00E940D022FE730E245E0215030404040D9
S11304C0E1F700C000008F3F39F0833619F40E9431
S11304D0780302C00E945A030E940D028BBBE8CF2E
S11304E0C39A8FE99FE00197F1F700C00000C39819
S11304F08FE99FE00197F1F700C000000895CF93C2
S1130500882314F4DF9A01C0DF98C82F86FF02C045
S1130510DE9A01C0DE98C5FF02C0DD9A01C0DD98F5
S1130520C4FF02C0DC9A01C0DC98C1980E9470022A
S1130530C3FF02C0DF9A01C0DF98C2FF02C0DE9A87
S113054001C0DE98C1FF02C0DD9A01C0DD98C0FF82
S113055002C0DC9A01C0DC98C1980E947002CF915D
S11305600895D49AD59AD69AD79ABB9ABA9AB99A30
S1130570C29882E00E947F0288E20E947F0281E0AA
S11305800E947F028EE00E947F0280E80E947F0228
S11305908FE39CE90197F1F700C000000895CF9321
S11305A0882314F4DF9A01C0DF98C82F86FF02C0A5
S11305B0DE9A01C0DE98C5FF02C0DD9A01C0DD9855
S11305C0C4FF02C0DC9A01C0DC98C19A0E94700288
S11305D0C3FF02C0DF9A01C0DF98C2FF02C0DE9AE7
S11305E001C0DE98C1FF02C0DD9A01C0DD98C0FFE2
S11305F002C0DC9A01C0DC98C19A0E947002CF91BB
S1130600089581E00E947F0210927000089580ECAA
S11306100E947F020895CF93DF93C82FD92F0EC075
S11306200E94CF02809170008F5F809370008F30A2
S113063029F48FE50E94CF020E9407038991882341
S113064079F7DF91CF910895813029F4862F81586D
S11306500E947F020895823021F4862F81540E94E3
S11306607F020895C09A8FE99FE00197F1F700C0D7
S11306700000C0988FE99FE00197F1F700C00000E7
S113068008958BBBC2980E943203089580EC0E94A7
S1130690410308958FEF8ABBB89AB99ABA9AC19860
S11306A088E30E94410381E00E9441038EE00E949E
S11306B0410308958BBBC29A0E9432030895CF93DD
S11306C0DF93C82FD92F0EC00E945A038091700067
S11306D08F5F809370008F3029F48FE50E945A0356
S11306E00E9446038991882379F7DF91CF91089579
S11306F081E00E944103109270000895813029F432
S1130700862F81580E9441030895823021F4862F58
S10F071081540E9441030895F894FFCF27
S113071C3738392F3435362A3132332D63303D2B6B
S9030000FC
